:100000002020002023010000210100002101000028
:1000100000000000000000000000000000000000E0
:1000200000000000000000000000000021010000AE
:10003000000000000000000021010000210100007C
:100040002101000021010000210100002101000028
:100050002101000021010000210100002101000018
:100060002101000021010000210100002101000008
:1000700021010000210100002101000021010000F8
:1000800021010000210100002101000021010000E8
:1000900021010000210100002101000021010000D8
:1000A00021010000210100002101000021010000C8
:1000B00010B5074C2378002B07D1064B002B02D03C
:1000C000054800E000BF0123237010BC01BC0047BD
:1000D00000000020000000003C0200000A4B10B5A8
:1000E000002B03D009490A4800E000BF0948036813
:1000F000002B02D110BC01BC0047074B002BF9D0EC
:1001000000F00CF8F6E7C0460000000004000020F4
:100110003C0200003C020000000000001847C046FE
:10012000FEE70F480F4970B5884204D000230E4CFB
:10013000CA18A2420ED300210C4B0D4A93420DD394
:10014000FF210C4B0C4A8B43936000F03DF800F00C
:1001500015F8FEE7C55804331560E9E702C3EDE77B
:100160003C020000000000200000002000000020F1
:100170001C0000200000000000ED00E08023104A79
:100180009B0011680B43136002230E4A11680B4356
:100190001360FA2252006423C046013B002BFBD1BE
:1001A000013A002AF7D1FA22520006E0C046013B8C
:1001B000002BFBD1013A002AEBD06423F6E7C046BE
:1001C000004400418044004170B500260E4D0F4CA4
:1001D000641BA410A6420BD1002600F01FF80C4DA2
:1001E0000C4C641BA410A64208D170BC01BC004793
:1001F000B300EB5800F010F80136EBE7B300EB5812
:1002000000F00AF80136EEE728020000280200009C
:10021000280200002C0200001847C046F8B5C0466E
:10022000F8BC08BC9E467047DD000000F8B5C0462B
:0C023000F8BC08BC9E467047B1000000FE
:00000001FF
