:1000000020200020FD000000F9000000F9000000A1
:1000100000000000000000000000000000000000E0
:10002000000000000000000000000000F9000000D7
:100030000000000000000000F9000000F9000000CE
:10004000F9000000F9000000F9000000F9000000CC
:10005000F9000000F9000000F9000000F9000000BC
:10006000F9000000F9000000F9000000F9000000AC
:10007000F9000000F9000000F9000000F90000009C
:10008000F9000000F9000000F9000000F90000008C
:10009000F9000000F9000000F9000000F90000007C
:1000A000F9000000F9000000F9000000F90000006C
:1000B00010B5064C2378002B07D1054B002B02D03E
:1000C000044800E000BF0123237010BD00000020A1
:1000D0000000000078020000044B10B5002B03D094
:1000E0000349044800E000BF10BDC0460000000006
:1000F0000400002078020000FEE7000013491448C5
:1001000010B581420AD0134BC41E0022A34203D370
:1001100003331A1A920892000F4B98470F48104B5E
:10012000C11E0022994203D803331A1A9208920082
:1001300000210C4B9847FF220B4B93430B4A9360D3
:100140000B4B98470B4B9847FEE7C04678020000E0
:100150000000002000000020350200000000002008
:100160001C000020470200000000000000ED00E03D
:10017000ED0100007901000030B580250224164A07
:10018000AD0013682B431360144A136823431360B4
:10019000134B144AFA20196840002943196011686A
:1001A000A14311606421C04601390029FBD1013807
:1001B0000028F7D118680C490140FA20196011682D
:1001C0004000214311606421C04601390029FBD160
:1001D00001380028F7D1DDE70044004180440041A8
:1001E0001044004190440041FFFDFFFF70B5002620
:1001F0000C4D0D4C641BA410A64209D1002600F042
:100200002BF80A4D0A4C641BA410A64205D170BD00
:10021000B300EB5898470136EEE7B300EB58984728
:100220000136F2E76402000064020000640200008C
:1002300068020000002310B59A4200D110BDCC5CCA
:10024000C4540133F8E703008218934200D1704789
:1002500019700133F9E70000F8B5C046F8BC08BCD6
:100260009E467047D9000000F8B5C046F8BC08BCEF
:080270009E467047B10000003A
:00000001FF
