:1000000020200020FD000000F9000000F9000000A1
:1000100000000000000000000000000000000000E0
:10002000000000000000000000000000F9000000D7
:100030000000000000000000F9000000F9000000CE
:10004000F9000000F9000000F9000000F9000000CC
:10005000F9000000F9000000F9000000F9000000BC
:10006000F9000000F9000000F9000000F9000000AC
:10007000F9000000F9000000F9000000F90000009C
:10008000F9000000F9000000F9000000F90000008C
:10009000F9000000F9000000F9000000F90000007C
:1000A000F9000000F9000000F9000000F90000006C
:1000B00010B5064C2378002B07D1054B002B02D03E
:1000C000044800E000BF0123237010BD00000020A1
:1000D0000000000064020000044B10B5002B03D0A8
:1000E0000349044800E000BF10BDC0460000000006
:1000F0000400002064020000FEE7000013491448D9
:1001000010B581420AD0134BC41E0022A34203D370
:1001100003331A1A920892000F4B98470F48104B5E
:10012000C11E0022994203D803331A1A9208920082
:1001300000210C4B9847FF220B4B93430B4A9360D3
:100140000B4B98470B4B9847FEE7C04664020000F4
:10015000000000200000002021020000000000201C
:100160001C000020330200000000000000ED00E051
:10017000D901000079010000134A144B1168802056
:100180000B43022130B51360114C124AC005FA2509
:1001900013686D008B43034313606423C046013B27
:1001A000002BFBD1013D002DF7D1FA2513686D001E
:1001B00023400B4313606423C046013B002BFBD15B
:1001C000013D002DF7D1E2E78044004102000040EC
:1001D000FFFFFFBF9044004170B500260C4D0D4C51
:1001E000641BA410A64209D1002600F02BF80A4D8A
:1001F0000A4C641BA410A64205D170BDB300EB5895
:1002000098470136EEE7B300EB5898470136F2E71E
:100210005002000050020000500200005402000092
:10022000002310B59A4200D110BDCC5CC4540133F8
:10023000F8E703008218934200D170471970013328
:10024000F9E70000F8B5C046F8BC08BC9E46704708
:10025000D9000000F8B5C046F8BC08BC9E467047FF
:04026000B1000000E9
:00000001FF
