:100000002020002001010000FD000000FD00000094
:1000100000000000000000000000000000000000E0
:10002000000000000000000000000000FD000000D3
:100030000000000000000000FD000000FD000000C6
:10004000FD000000FD000000FD000000FD000000BC
:10005000FD000000FD000000FD000000FD000000AC
:10006000FD000000FD000000FD000000FD0000009C
:10007000FD000000FD000000FD000000FD0000008C
:10008000FD000000FD000000FD000000FD0000007C
:10009000FD000000FD000000FD000000FD0000006C
:1000A000FD000000FD000000FD000000FD0000005C
:1000B0000000000010B5064C2378002B07D1054B3B
:1000C000002B02D0044800E000BF0123237010BDC4
:1000D0000000002000000000C0020000044B10B52A
:1000E000002B03D00349044800E000BF10BDC04608
:1000F0000000000004000020C0020000FEE7000035
:100100002549264870B581420AD0254BC41E0022DD
:10011000A34203D303331A1A92089200214B984743
:100120002148224BC11E0022994203D803331A1AD8
:100130009208920000211E4B9847FF221D4B03217D
:1001400093431D4A0C2593600222082430261B4B42
:100150001B485A62C3788B431343C370C378AB43C5
:100160002343C370174B987BB043060020203043D5
:100170009873987BA84304439C73987B88430243FD
:100180009A738023104A51680B4353600F4B984772
:100190000F4B9847FEE7C046C00200000000002059
:1001A000000000207D020000000000201C00002054
:1001B0008F0200000000000000ED00E0FC70004134
:1001C000005000410048004100400041350200005D
:1001D000D5010000134A144B116880200B43022103
:1001E00030B51360114C124AC005FA2513686D0032
:1001F0008B43034313606423C046013B002BFBD1B8
:10020000013D002DF7D1FA2513686D0023400B4303
:1002100013606423C046013B002BFBD1013D002D40
:10022000F7D1E2E78044004102000040FFFFFFBF3A
:100230009044004170B500260C4D0D4C641BA41079
:10024000A64209D1002600F02BF80A4D0A4C641B87
:10025000A410A64205D170BDB300EB5898470136F3
:10026000EEE7B300EB5898470136F2E7AC02000026
:10027000AC020000AC020000B0020000002310B588
:100280009A4200D110BDCC5CC4540133F8E703009E
:100290008218934200D1704719700133F9E70000CA
:1002A000F8B5C046F8BC08BC9E467047DD000000AB
:1002B000F8B5C046F8BC08BC9E467047B5000000C3
:00000001FF
