:1000000020000120A9020000A5020000A5020000B6
:10001000A5020000A5020000A502000000000000EB
:10002000000000000000000000000000A502000029
:10003000A502000000000000A5020000A5020000CB
:10004000A5020000A5020000A5020000A502000014
:10005000A5020000A5020000A5020000A502000004
:10006000A5020000A5020000A5020000A5020000F4
:10007000A5020000A5020000A5020000A5020000E4
:10008000A5020000A5020000A5020000A5020000D4
:10009000A5020000A5020000A5020000A5020000C4
:1000A000A5020000A5020000A5020000A5020000B4
:1000B000A5020000A5020000A5020000A5020000A4
:1000C000A5020000A5020000A5020000A502000094
:1000D000A5020000A5020000A5020000A502000084
:1000E000A5020000A50200000000000000000000C2
:1000F00000000000A5020000A5020000A50200000B
:10010000A5020000A5020000A5020000A502000053
:10011000A5020000A5020000A5020000A502000043
:10012000A5020000A5020000A5020000A502000033
:10013000A5020000A5020000A5020000A502000023
:10014000A5020000A5020000A5020000A502000013
:10015000A5020000A5020000A5020000A502000003
:10016000A5020000A5020000A5020000A5020000F3
:10017000A5020000A5020000A5020000A5020000E3
:10018000A5020000A5020000A5020000A5020000D3
:10019000A5020000A5020000A5020000A5020000C3
:1001A000A5020000A5020000A5020000A5020000B3
:1001B000A5020000A5020000A5020000A5020000A3
:1001C000A5020000A5020000A5020000A502000093
:1001D000A5020000A5020000A5020000A502000083
:1001E000A5020000A5020000A5020000A502000073
:1001F000A5020000A5020000A5020000A502000063
:10020000A5020000A5020000A5020000A502000052
:10021000A5020000A5020000A5020000A502000042
:10022000A5020000A5020000A5020000A502000032
:10023000A5020000A5020000A5020000A502000022
:10024000A5020000A5020000A5020000A502000012
:10025000A5020000A5020000A5020000A502000002
:10026000A502000010B5054C237833B9044B13B137
:100270000448AFF300800123237010BD000000206C
:1002800000000000D003000008B5034B1BB1034978
:100290000348AFF3008008BD000000000400002008
:1002A000D0030000FEE7000018491948814210B54C
:1002B0000AD0184BDA1C121A22F00302C41EA34201
:1002C00038BF0022144B9847144B1548DA1C121AF9
:1002D000C11E22F00302994288BF0022114B002167
:1002E0009847114A114B22F07F029A60D3F8882078
:1002F00042F47002C3F88820BFF34F8FBFF36F8FB3
:100300000B4B98470B4B9847FEE700BFD00300000C
:100310000000002000000020850300001C000020D9
:1003200000000020A10300000000000000ED00E03C
:100330003D0300003903000000BFFDE770B50D4D1F
:100340000D4C641BA4100026A64209D10B4D0C4C89
:1003500000F02EF8641BA4100026A64205D170BD43
:1003600055F8043B98470136EEE755F8043B9847AB
:100370000136F2E7BC030000BC030000BC03000030
:10038000C00300000A44914200F1FF3300D17047DE
:1003900010B511F8014B03F8014F9142F9D110BD8E
:1003A00002440346934200D1704703F8011BF9E76A
:1003B000F8B500BFF8BC08BC9E4670478902000033
:1003C000F8B500BFF8BC08BC9E4670476502000047
:00000001FF
